{
  "_format": "hh-sol-artifact-1",
  "contractName": "DoctorDetailContract",
  "sourceName": "contracts/Doctor.sol",
  "abi": [
    {
      "inputs": [],
      "stateMutability": "nonpayable",
      "type": "constructor"
    },
    {
      "anonymous": false,
      "inputs": [
        {
          "components": [
            {
              "internalType": "string",
              "name": "name",
              "type": "string"
            },
            {
              "internalType": "string",
              "name": "age",
              "type": "string"
            },
            {
              "internalType": "string",
              "name": "email",
              "type": "string"
            },
            {
              "internalType": "string",
              "name": "qualification",
              "type": "string"
            },
            {
              "internalType": "string",
              "name": "hospital",
              "type": "string"
            },
            {
              "internalType": "string",
              "name": "specialist",
              "type": "string"
            },
            {
              "internalType": "string",
              "name": "phone",
              "type": "string"
            },
            {
              "internalType": "string",
              "name": "password",
              "type": "string"
            }
          ],
          "indexed": false,
          "internalType": "struct DoctorDetailContract.Doctor",
          "name": "_doctor",
          "type": "tuple"
        },
        {
          "indexed": false,
          "internalType": "address",
          "name": "account",
          "type": "address"
        }
      ],
      "name": "addDoctors",
      "type": "event"
    },
    {
      "anonymous": false,
      "inputs": [
        {
          "components": [
            {
              "internalType": "string",
              "name": "name",
              "type": "string"
            },
            {
              "internalType": "string",
              "name": "age",
              "type": "string"
            },
            {
              "internalType": "string",
              "name": "email",
              "type": "string"
            },
            {
              "internalType": "string",
              "name": "qualification",
              "type": "string"
            },
            {
              "internalType": "string",
              "name": "hospital",
              "type": "string"
            },
            {
              "internalType": "string",
              "name": "specialist",
              "type": "string"
            },
            {
              "internalType": "string",
              "name": "phone",
              "type": "string"
            },
            {
              "internalType": "string",
              "name": "password",
              "type": "string"
            }
          ],
          "indexed": false,
          "internalType": "struct DoctorDetailContract.Doctor",
          "name": "_doctor",
          "type": "tuple"
        },
        {
          "indexed": false,
          "internalType": "address",
          "name": "account",
          "type": "address"
        }
      ],
      "name": "deleteDoctors",
      "type": "event"
    },
    {
      "anonymous": false,
      "inputs": [
        {
          "indexed": false,
          "internalType": "uint256",
          "name": "_id",
          "type": "uint256"
        },
        {
          "components": [
            {
              "internalType": "string",
              "name": "name",
              "type": "string"
            },
            {
              "internalType": "string",
              "name": "age",
              "type": "string"
            },
            {
              "internalType": "string",
              "name": "email",
              "type": "string"
            },
            {
              "internalType": "string",
              "name": "qualification",
              "type": "string"
            },
            {
              "internalType": "string",
              "name": "hospital",
              "type": "string"
            },
            {
              "internalType": "string",
              "name": "specialist",
              "type": "string"
            },
            {
              "internalType": "string",
              "name": "phone",
              "type": "string"
            },
            {
              "internalType": "string",
              "name": "password",
              "type": "string"
            }
          ],
          "indexed": false,
          "internalType": "struct DoctorDetailContract.Doctor",
          "name": "_doctor",
          "type": "tuple"
        },
        {
          "indexed": false,
          "internalType": "address",
          "name": "account",
          "type": "address"
        }
      ],
      "name": "updateDoctors",
      "type": "event"
    },
    {
      "inputs": [
        {
          "components": [
            {
              "internalType": "string",
              "name": "name",
              "type": "string"
            },
            {
              "internalType": "string",
              "name": "age",
              "type": "string"
            },
            {
              "internalType": "string",
              "name": "email",
              "type": "string"
            },
            {
              "internalType": "string",
              "name": "qualification",
              "type": "string"
            },
            {
              "internalType": "string",
              "name": "hospital",
              "type": "string"
            },
            {
              "internalType": "string",
              "name": "specialist",
              "type": "string"
            },
            {
              "internalType": "string",
              "name": "phone",
              "type": "string"
            },
            {
              "internalType": "string",
              "name": "password",
              "type": "string"
            }
          ],
          "internalType": "struct DoctorDetailContract.Doctor",
          "name": "_doctor",
          "type": "tuple"
        }
      ],
      "name": "addDoctor",
      "outputs": [],
      "stateMutability": "nonpayable",
      "type": "function"
    },
    {
      "inputs": [
        {
          "internalType": "uint256",
          "name": "_id",
          "type": "uint256"
        }
      ],
      "name": "deleteDoctor",
      "outputs": [],
      "stateMutability": "nonpayable",
      "type": "function"
    },
    {
      "inputs": [
        {
          "internalType": "uint256",
          "name": "",
          "type": "uint256"
        }
      ],
      "name": "doctor",
      "outputs": [
        {
          "internalType": "string",
          "name": "name",
          "type": "string"
        },
        {
          "internalType": "string",
          "name": "age",
          "type": "string"
        },
        {
          "internalType": "string",
          "name": "email",
          "type": "string"
        },
        {
          "internalType": "string",
          "name": "qualification",
          "type": "string"
        },
        {
          "internalType": "string",
          "name": "hospital",
          "type": "string"
        },
        {
          "internalType": "string",
          "name": "specialist",
          "type": "string"
        },
        {
          "internalType": "string",
          "name": "phone",
          "type": "string"
        },
        {
          "internalType": "string",
          "name": "password",
          "type": "string"
        }
      ],
      "stateMutability": "view",
      "type": "function"
    },
    {
      "inputs": [],
      "name": "doctorCount",
      "outputs": [
        {
          "internalType": "uint256",
          "name": "",
          "type": "uint256"
        }
      ],
      "stateMutability": "view",
      "type": "function"
    },
    {
      "inputs": [],
      "name": "getDoctors",
      "outputs": [
        {
          "components": [
            {
              "internalType": "string",
              "name": "name",
              "type": "string"
            },
            {
              "internalType": "string",
              "name": "age",
              "type": "string"
            },
            {
              "internalType": "string",
              "name": "email",
              "type": "string"
            },
            {
              "internalType": "string",
              "name": "qualification",
              "type": "string"
            },
            {
              "internalType": "string",
              "name": "hospital",
              "type": "string"
            },
            {
              "internalType": "string",
              "name": "specialist",
              "type": "string"
            },
            {
              "internalType": "string",
              "name": "phone",
              "type": "string"
            },
            {
              "internalType": "string",
              "name": "password",
              "type": "string"
            }
          ],
          "internalType": "struct DoctorDetailContract.Doctor[]",
          "name": "",
          "type": "tuple[]"
        }
      ],
      "stateMutability": "view",
      "type": "function"
    },
    {
      "inputs": [
        {
          "internalType": "uint256",
          "name": "_id",
          "type": "uint256"
        },
        {
          "components": [
            {
              "internalType": "string",
              "name": "name",
              "type": "string"
            },
            {
              "internalType": "string",
              "name": "age",
              "type": "string"
            },
            {
              "internalType": "string",
              "name": "email",
              "type": "string"
            },
            {
              "internalType": "string",
              "name": "qualification",
              "type": "string"
            },
            {
              "internalType": "string",
              "name": "hospital",
              "type": "string"
            },
            {
              "internalType": "string",
              "name": "specialist",
              "type": "string"
            },
            {
              "internalType": "string",
              "name": "phone",
              "type": "string"
            },
            {
              "internalType": "string",
              "name": "password",
              "type": "string"
            }
          ],
          "internalType": "struct DoctorDetailContract.Doctor",
          "name": "_doctor",
          "type": "tuple"
        }
      ],
      "name": "updateDoctor",
      "outputs": [],
      "stateMutability": "nonpayable",
      "type": "function"
    }
  ],
  "bytecode": "0x60806040526000805534801561001457600080fd5b5061232f806100246000396000f3fe608060405234801561001057600080fd5b50600436106100625760003560e01c80630c96bf0514610067578063114db1fd146100835780631950e7b61461009f57806378522bc4146100d6578063b13d5d94146100f4578063d7282bd514610112575b600080fd5b610081600480360381019061007c91906117e5565b61012e565b005b61009d60048036038101906100989190611864565b61025f565b005b6100b960048036038101906100b49190611864565b6109d7565b6040516100cd989796959493929190611910565b60405180910390f35b6100de610e6f565b6040516100eb91906119d5565b60405180910390f35b6100fc610e75565b6040516101099190611bdd565b60405180910390f35b61012c60048036038101906101279190611bff565b611365565b005b6001819080600181540180825580915050600190039060005260206000209060080201600090919091909150600082015181600001908161016f9190611e67565b5060208201518160010190816101859190611e67565b50604082015181600201908161019b9190611e67565b5060608201518160030190816101b19190611e67565b5060808201518160040190816101c79190611e67565b5060a08201518160050190816101dd9190611e67565b5060c08201518160060190816101f39190611e67565b5060e08201518160070190816102099190611e67565b50505060008081548092919061021e90611f68565b91905055507faed56e41599496da628e45c51519ddfc60a04539f237195873fef9354510b0cc81336040516102549291906120d2565b60405180910390a150565b60006001828154811061027557610274612102565b5b90600052602060002090600802016040518061010001604052908160008201805461029f90611c8a565b80601f01602080910402602001604051908101604052809291908181526020018280546102cb90611c8a565b80156103185780601f106102ed57610100808354040283529160200191610318565b820191906000526020600020905b8154815290600101906020018083116102fb57829003601f168201915b5050505050815260200160018201805461033190611c8a565b80601f016020809104026020016040519081016040528092919081815260200182805461035d90611c8a565b80156103aa5780601f1061037f576101008083540402835291602001916103aa565b820191906000526020600020905b81548152906001019060200180831161038d57829003601f168201915b505050505081526020016002820180546103c390611c8a565b80601f01602080910402602001604051908101604052809291908181526020018280546103ef90611c8a565b801561043c5780601f106104115761010080835404028352916020019161043c565b820191906000526020600020905b81548152906001019060200180831161041f57829003601f168201915b5050505050815260200160038201805461045590611c8a565b80601f016020809104026020016040519081016040528092919081815260200182805461048190611c8a565b80156104ce5780601f106104a3576101008083540402835291602001916104ce565b820191906000526020600020905b8154815290600101906020018083116104b157829003601f168201915b505050505081526020016004820180546104e790611c8a565b80601f016020809104026020016040519081016040528092919081815260200182805461051390611c8a565b80156105605780601f1061053557610100808354040283529160200191610560565b820191906000526020600020905b81548152906001019060200180831161054357829003601f168201915b5050505050815260200160058201805461057990611c8a565b80601f01602080910402602001604051908101604052809291908181526020018280546105a590611c8a565b80156105f25780601f106105c7576101008083540402835291602001916105f2565b820191906000526020600020905b8154815290600101906020018083116105d557829003601f168201915b5050505050815260200160068201805461060b90611c8a565b80601f016020809104026020016040519081016040528092919081815260200182805461063790611c8a565b80156106845780601f1061065957610100808354040283529160200191610684565b820191906000526020600020905b81548152906001019060200180831161066757829003601f168201915b5050505050815260200160078201805461069d90611c8a565b80601f01602080910402602001604051908101604052809291908181526020018280546106c990611c8a565b80156107165780601f106106eb57610100808354040283529160200191610716565b820191906000526020600020905b8154815290600101906020018083116106f957829003601f168201915b50505050508152505090506001600054036107db57600180548061073d5761073c612131565b5b600190038181906000526020600020906008020160008082016000610762919061147a565b600182016000610772919061147a565b600282016000610782919061147a565b600382016000610792919061147a565b6004820160006107a2919061147a565b6005820160006107b2919061147a565b6006820160006107c2919061147a565b6007820160006107d2919061147a565b50509055610983565b6001806000546107eb9190612160565b815481106107fc576107fb612102565b5b90600052602060002090600802016001838154811061081e5761081d612102565b5b90600052602060002090600802016000820181600001908161084091906121aa565b506001820181600101908161085591906121aa565b506002820181600201908161086a91906121aa565b506003820181600301908161087f91906121aa565b506004820181600401908161089491906121aa565b50600582018160050190816108a991906121aa565b50600682018160060190816108be91906121aa565b50600782018160070190816108d391906121aa565b5090505060018054806108e9576108e8612131565b5b60019003818190600052602060002090600802016000808201600061090e919061147a565b60018201600061091e919061147a565b60028201600061092e919061147a565b60038201600061093e919061147a565b60048201600061094e919061147a565b60058201600061095e919061147a565b60068201600061096e919061147a565b60078201600061097e919061147a565b505090555b60008081548092919061099590612292565b91905055507f46dcc9f2e6c221b16e99f9939a7ef8f63edf625ac39810e1aad3958927a57c8481336040516109cb9291906120d2565b60405180910390a15050565b600181815481106109e757600080fd5b9060005260206000209060080201600091509050806000018054610a0a90611c8a565b80601f0160208091040260200160405190810160405280929190818152602001828054610a3690611c8a565b8015610a835780601f10610a5857610100808354040283529160200191610a83565b820191906000526020600020905b815481529060010190602001808311610a6657829003601f168201915b505050505090806001018054610a9890611c8a565b80601f0160208091040260200160405190810160405280929190818152602001828054610ac490611c8a565b8015610b115780601f10610ae657610100808354040283529160200191610b11565b820191906000526020600020905b815481529060010190602001808311610af457829003601f168201915b505050505090806002018054610b2690611c8a565b80601f0160208091040260200160405190810160405280929190818152602001828054610b5290611c8a565b8015610b9f5780601f10610b7457610100808354040283529160200191610b9f565b820191906000526020600020905b815481529060010190602001808311610b8257829003601f168201915b505050505090806003018054610bb490611c8a565b80601f0160208091040260200160405190810160405280929190818152602001828054610be090611c8a565b8015610c2d5780601f10610c0257610100808354040283529160200191610c2d565b820191906000526020600020905b815481529060010190602001808311610c1057829003601f168201915b505050505090806004018054610c4290611c8a565b80601f0160208091040260200160405190810160405280929190818152602001828054610c6e90611c8a565b8015610cbb5780601f10610c9057610100808354040283529160200191610cbb565b820191906000526020600020905b815481529060010190602001808311610c9e57829003601f168201915b505050505090806005018054610cd090611c8a565b80601f0160208091040260200160405190810160405280929190818152602001828054610cfc90611c8a565b8015610d495780601f10610d1e57610100808354040283529160200191610d49565b820191906000526020600020905b815481529060010190602001808311610d2c57829003601f168201915b505050505090806006018054610d5e90611c8a565b80601f0160208091040260200160405190810160405280929190818152602001828054610d8a90611c8a565b8015610dd75780601f10610dac57610100808354040283529160200191610dd7565b820191906000526020600020905b815481529060010190602001808311610dba57829003601f168201915b505050505090806007018054610dec90611c8a565b80601f0160208091040260200160405190810160405280929190818152602001828054610e1890611c8a565b8015610e655780601f10610e3a57610100808354040283529160200191610e65565b820191906000526020600020905b815481529060010190602001808311610e4857829003601f168201915b5050505050905088565b60005481565b60606001805480602002602001604051908101604052809291908181526020016000905b8282101561135c578382906000526020600020906008020160405180610100016040529081600082018054610ecd90611c8a565b80601f0160208091040260200160405190810160405280929190818152602001828054610ef990611c8a565b8015610f465780601f10610f1b57610100808354040283529160200191610f46565b820191906000526020600020905b815481529060010190602001808311610f2957829003601f168201915b50505050508152602001600182018054610f5f90611c8a565b80601f0160208091040260200160405190810160405280929190818152602001828054610f8b90611c8a565b8015610fd85780601f10610fad57610100808354040283529160200191610fd8565b820191906000526020600020905b815481529060010190602001808311610fbb57829003601f168201915b50505050508152602001600282018054610ff190611c8a565b80601f016020809104026020016040519081016040528092919081815260200182805461101d90611c8a565b801561106a5780601f1061103f5761010080835404028352916020019161106a565b820191906000526020600020905b81548152906001019060200180831161104d57829003601f168201915b5050505050815260200160038201805461108390611c8a565b80601f01602080910402602001604051908101604052809291908181526020018280546110af90611c8a565b80156110fc5780601f106110d1576101008083540402835291602001916110fc565b820191906000526020600020905b8154815290600101906020018083116110df57829003601f168201915b5050505050815260200160048201805461111590611c8a565b80601f016020809104026020016040519081016040528092919081815260200182805461114190611c8a565b801561118e5780601f106111635761010080835404028352916020019161118e565b820191906000526020600020905b81548152906001019060200180831161117157829003601f168201915b505050505081526020016005820180546111a790611c8a565b80601f01602080910402602001604051908101604052809291908181526020018280546111d390611c8a565b80156112205780601f106111f557610100808354040283529160200191611220565b820191906000526020600020905b81548152906001019060200180831161120357829003601f168201915b5050505050815260200160068201805461123990611c8a565b80601f016020809104026020016040519081016040528092919081815260200182805461126590611c8a565b80156112b25780601f10611287576101008083540402835291602001916112b2565b820191906000526020600020905b81548152906001019060200180831161129557829003601f168201915b505050505081526020016007820180546112cb90611c8a565b80601f01602080910402602001604051908101604052809291908181526020018280546112f790611c8a565b80156113445780601f1061131957610100808354040283529160200191611344565b820191906000526020600020905b81548152906001019060200180831161132757829003601f168201915b50505050508152505081526020019060010190610e99565b50505050905090565b806001838154811061137a57611379612102565b5b9060005260206000209060080201600082015181600001908161139d9190611e67565b5060208201518160010190816113b39190611e67565b5060408201518160020190816113c99190611e67565b5060608201518160030190816113df9190611e67565b5060808201518160040190816113f59190611e67565b5060a082015181600501908161140b9190611e67565b5060c08201518160060190816114219190611e67565b5060e08201518160070190816114379190611e67565b509050507f8575450a3fa7422490f243f0671d1aa084f2f0416addb2ebba60067a8489e37e82823360405161146e939291906122bb565b60405180910390a15050565b50805461148690611c8a565b6000825580601f1061149857506114b7565b601f0160209004906000526020600020908101906114b691906114ba565b5b50565b5b808211156114d35760008160009055506001016114bb565b5090565b6000604051905090565b600080fd5b600080fd5b600080fd5b6000601f19601f8301169050919050565b7f4e487b7100000000000000000000000000000000000000000000000000000000600052604160045260246000fd5b611539826114f0565b810181811067ffffffffffffffff8211171561155857611557611501565b5b80604052505050565b600061156b6114d7565b90506115778282611530565b919050565b600080fd5b600080fd5b600080fd5b600067ffffffffffffffff8211156115a6576115a5611501565b5b6115af826114f0565b9050602081019050919050565b82818337600083830152505050565b60006115de6115d98461158b565b611561565b9050828152602081018484840111156115fa576115f9611586565b5b6116058482856115bc565b509392505050565b600082601f83011261162257611621611581565b5b81356116328482602086016115cb565b91505092915050565b60006101008284031215611652576116516114eb565b5b61165d610100611561565b9050600082013567ffffffffffffffff81111561167d5761167c61157c565b5b6116898482850161160d565b600083015250602082013567ffffffffffffffff8111156116ad576116ac61157c565b5b6116b98482850161160d565b602083015250604082013567ffffffffffffffff8111156116dd576116dc61157c565b5b6116e98482850161160d565b604083015250606082013567ffffffffffffffff81111561170d5761170c61157c565b5b6117198482850161160d565b606083015250608082013567ffffffffffffffff81111561173d5761173c61157c565b5b6117498482850161160d565b60808301525060a082013567ffffffffffffffff81111561176d5761176c61157c565b5b6117798482850161160d565b60a08301525060c082013567ffffffffffffffff81111561179d5761179c61157c565b5b6117a98482850161160d565b60c08301525060e082013567ffffffffffffffff8111156117cd576117cc61157c565b5b6117d98482850161160d565b60e08301525092915050565b6000602082840312156117fb576117fa6114e1565b5b600082013567ffffffffffffffff811115611819576118186114e6565b5b6118258482850161163b565b91505092915050565b6000819050919050565b6118418161182e565b811461184c57600080fd5b50565b60008135905061185e81611838565b92915050565b60006020828403121561187a576118796114e1565b5b60006118888482850161184f565b91505092915050565b600081519050919050565b600082825260208201905092915050565b60005b838110156118cb5780820151818401526020810190506118b0565b60008484015250505050565b60006118e282611891565b6118ec818561189c565b93506118fc8185602086016118ad565b611905816114f0565b840191505092915050565b600061010082019050818103600083015261192b818b6118d7565b9050818103602083015261193f818a6118d7565b9050818103604083015261195381896118d7565b9050818103606083015261196781886118d7565b9050818103608083015261197b81876118d7565b905081810360a083015261198f81866118d7565b905081810360c08301526119a381856118d7565b905081810360e08301526119b781846118d7565b90509998505050505050505050565b6119cf8161182e565b82525050565b60006020820190506119ea60008301846119c6565b92915050565b600081519050919050565b600082825260208201905092915050565b6000819050602082019050919050565b600082825260208201905092915050565b6000611a3882611891565b611a428185611a1c565b9350611a528185602086016118ad565b611a5b816114f0565b840191505092915050565b6000610100830160008301518482036000860152611a848282611a2d565b91505060208301518482036020860152611a9e8282611a2d565b91505060408301518482036040860152611ab88282611a2d565b91505060608301518482036060860152611ad28282611a2d565b91505060808301518482036080860152611aec8282611a2d565b91505060a083015184820360a0860152611b068282611a2d565b91505060c083015184820360c0860152611b208282611a2d565b91505060e083015184820360e0860152611b3a8282611a2d565b9150508091505092915050565b6000611b538383611a66565b905092915050565b6000602082019050919050565b6000611b73826119f0565b611b7d81856119fb565b935083602082028501611b8f85611a0c565b8060005b85811015611bcb5784840389528151611bac8582611b47565b9450611bb783611b5b565b925060208a01995050600181019050611b93565b50829750879550505050505092915050565b60006020820190508181036000830152611bf78184611b68565b905092915050565b60008060408385031215611c1657611c156114e1565b5b6000611c248582860161184f565b925050602083013567ffffffffffffffff811115611c4557611c446114e6565b5b611c518582860161163b565b9150509250929050565b7f4e487b7100000000000000000000000000000000000000000000000000000000600052602260045260246000fd5b60006002820490506001821680611ca257607f821691505b602082108103611cb557611cb4611c5b565b5b50919050565b60008190508160005260206000209050919050565b60006020601f8301049050919050565b600082821b905092915050565b600060088302611d1d7fffffffffffffffffffffffffffffffffffffffffffffffffffffffffffffffff82611ce0565b611d278683611ce0565b95508019841693508086168417925050509392505050565b6000819050919050565b6000611d64611d5f611d5a8461182e565b611d3f565b61182e565b9050919050565b6000819050919050565b611d7e83611d49565b611d92611d8a82611d6b565b848454611ced565b825550505050565b600090565b611da7611d9a565b611db2818484611d75565b505050565b5b81811015611dd657611dcb600082611d9f565b600181019050611db8565b5050565b601f821115611e1b57611dec81611cbb565b611df584611cd0565b81016020851015611e04578190505b611e18611e1085611cd0565b830182611db7565b50505b505050565b600082821c905092915050565b6000611e3e60001984600802611e20565b1980831691505092915050565b6000611e578383611e2d565b9150826002028217905092915050565b611e7082611891565b67ffffffffffffffff811115611e8957611e88611501565b5b611e938254611c8a565b611e9e828285611dda565b600060209050601f831160018114611ed15760008415611ebf578287015190505b611ec98582611e4b565b865550611f31565b601f198416611edf86611cbb565b60005b82811015611f0757848901518255600182019150602085019450602081019050611ee2565b86831015611f245784890151611f20601f891682611e2d565b8355505b6001600288020188555050505b505050505050565b7f4e487b7100000000000000000000000000000000000000000000000000000000600052601160045260246000fd5b6000611f738261182e565b91507fffffffffffffffffffffffffffffffffffffffffffffffffffffffffffffffff8203611fa557611fa4611f39565b5b600182019050919050565b6000610100830160008301518482036000860152611fce8282611a2d565b91505060208301518482036020860152611fe88282611a2d565b915050604083015184820360408601526120028282611a2d565b9150506060830151848203606086015261201c8282611a2d565b915050608083015184820360808601526120368282611a2d565b91505060a083015184820360a08601526120508282611a2d565b91505060c083015184820360c086015261206a8282611a2d565b91505060e083015184820360e08601526120848282611a2d565b9150508091505092915050565b600073ffffffffffffffffffffffffffffffffffffffff82169050919050565b60006120bc82612091565b9050919050565b6120cc816120b1565b82525050565b600060408201905081810360008301526120ec8185611fb0565b90506120fb60208301846120c3565b9392505050565b7f4e487b7100000000000000000000000000000000000000000000000000000000600052603260045260246000fd5b7f4e487b7100000000000000000000000000000000000000000000000000000000600052603160045260246000fd5b600061216b8261182e565b91506121768361182e565b925082820390508181111561218e5761218d611f39565b5b92915050565b6000815490506121a381611c8a565b9050919050565b8181036121b8575050612290565b6121c182612194565b67ffffffffffffffff8111156121da576121d9611501565b5b6121e48254611c8a565b6121ef828285611dda565b6000601f83116001811461221e576000841561220c578287015490505b6122168582611e4b565b865550612289565b601f19841661222c87611cbb565b965061223786611cbb565b60005b8281101561225f5784890154825560018201915060018501945060208101905061223a565b8683101561227c5784890154612278601f891682611e2d565b8355505b6001600288020188555050505b5050505050505b565b600061229d8261182e565b9150600082036122b0576122af611f39565b5b600182039050919050565b60006060820190506122d060008301866119c6565b81810360208301526122e28185611fb0565b90506122f160408301846120c3565b94935050505056fea2646970667358221220997326ed6fb91d298f82b9698a81075b811a46f144c37b8e348f9baab3836b4f64736f6c63430008140033",
  "linkReferences": {},
  "deployedLinkReferences": {}
}