{
  "_format": "hh-sol-artifact-1",
  "contractName": "PrescriptionDetailContract",
  "sourceName": "contracts/Prescription.sol",
  "abi": [
    {
      "inputs": [],
      "stateMutability": "nonpayable",
      "type": "constructor"
    },
    {
      "anonymous": false,
      "inputs": [
        {
          "components": [
            {
              "internalType": "string",
              "name": "name",
              "type": "string"
            },
            {
              "internalType": "string",
              "name": "email",
              "type": "string"
            },
            {
              "internalType": "string",
              "name": "comments",
              "type": "string"
            },
            {
              "internalType": "string",
              "name": "disease",
              "type": "string"
            },
            {
              "internalType": "string",
              "name": "prescription",
              "type": "string"
            }
          ],
          "indexed": false,
          "internalType": "struct PrescriptionDetailContract.Prescription",
          "name": "_prescription",
          "type": "tuple"
        },
        {
          "indexed": false,
          "internalType": "address",
          "name": "account",
          "type": "address"
        }
      ],
      "name": "addPrescriptions",
      "type": "event"
    },
    {
      "anonymous": false,
      "inputs": [
        {
          "indexed": false,
          "internalType": "uint256",
          "name": "_id",
          "type": "uint256"
        },
        {
          "components": [
            {
              "internalType": "string",
              "name": "name",
              "type": "string"
            },
            {
              "internalType": "string",
              "name": "email",
              "type": "string"
            },
            {
              "internalType": "string",
              "name": "comments",
              "type": "string"
            },
            {
              "internalType": "string",
              "name": "disease",
              "type": "string"
            },
            {
              "internalType": "string",
              "name": "prescription",
              "type": "string"
            }
          ],
          "indexed": false,
          "internalType": "struct PrescriptionDetailContract.Prescription",
          "name": "_prescription",
          "type": "tuple"
        },
        {
          "indexed": false,
          "internalType": "address",
          "name": "account",
          "type": "address"
        }
      ],
      "name": "updatePrescriptions",
      "type": "event"
    },
    {
      "inputs": [
        {
          "components": [
            {
              "internalType": "string",
              "name": "name",
              "type": "string"
            },
            {
              "internalType": "string",
              "name": "email",
              "type": "string"
            },
            {
              "internalType": "string",
              "name": "comments",
              "type": "string"
            },
            {
              "internalType": "string",
              "name": "disease",
              "type": "string"
            },
            {
              "internalType": "string",
              "name": "prescription",
              "type": "string"
            }
          ],
          "internalType": "struct PrescriptionDetailContract.Prescription",
          "name": "_prescription",
          "type": "tuple"
        }
      ],
      "name": "addPrescription",
      "outputs": [],
      "stateMutability": "nonpayable",
      "type": "function"
    },
    {
      "inputs": [],
      "name": "getDoctors",
      "outputs": [
        {
          "components": [
            {
              "internalType": "string",
              "name": "name",
              "type": "string"
            },
            {
              "internalType": "string",
              "name": "email",
              "type": "string"
            },
            {
              "internalType": "string",
              "name": "comments",
              "type": "string"
            },
            {
              "internalType": "string",
              "name": "disease",
              "type": "string"
            },
            {
              "internalType": "string",
              "name": "prescription",
              "type": "string"
            }
          ],
          "internalType": "struct PrescriptionDetailContract.Prescription[]",
          "name": "",
          "type": "tuple[]"
        }
      ],
      "stateMutability": "view",
      "type": "function"
    },
    {
      "inputs": [
        {
          "internalType": "uint256",
          "name": "",
          "type": "uint256"
        }
      ],
      "name": "prescription",
      "outputs": [
        {
          "internalType": "string",
          "name": "name",
          "type": "string"
        },
        {
          "internalType": "string",
          "name": "email",
          "type": "string"
        },
        {
          "internalType": "string",
          "name": "comments",
          "type": "string"
        },
        {
          "internalType": "string",
          "name": "disease",
          "type": "string"
        },
        {
          "internalType": "string",
          "name": "prescription",
          "type": "string"
        }
      ],
      "stateMutability": "view",
      "type": "function"
    },
    {
      "inputs": [],
      "name": "prescriptionCount",
      "outputs": [
        {
          "internalType": "uint256",
          "name": "",
          "type": "uint256"
        }
      ],
      "stateMutability": "view",
      "type": "function"
    },
    {
      "inputs": [
        {
          "internalType": "uint256",
          "name": "_id",
          "type": "uint256"
        },
        {
          "components": [
            {
              "internalType": "string",
              "name": "name",
              "type": "string"
            },
            {
              "internalType": "string",
              "name": "email",
              "type": "string"
            },
            {
              "internalType": "string",
              "name": "comments",
              "type": "string"
            },
            {
              "internalType": "string",
              "name": "disease",
              "type": "string"
            },
            {
              "internalType": "string",
              "name": "prescription",
              "type": "string"
            }
          ],
          "internalType": "struct PrescriptionDetailContract.Prescription",
          "name": "_prescription",
          "type": "tuple"
        }
      ],
      "name": "updatePrescription",
      "outputs": [],
      "stateMutability": "nonpayable",
      "type": "function"
    }
  ],
  "bytecode": "0x60806040526000805534801561001457600080fd5b50611451806100246000396000f3fe608060405234801561001057600080fd5b50600436106100575760003560e01c8063287eda051461005c578063b13d5d9414610090578063b6558498146100ae578063b82bdfc5146100cc578063f898dcad146100e8575b600080fd5b6100766004803603810190610071919061093d565b610104565b6040516100879594939291906109fa565b60405180910390f35b6100986103f2565b6040516100a59190610c0e565b60405180910390f35b6100b661072b565b6040516100c39190610c3f565b60405180910390f35b6100e660048036038101906100e19190610eb1565b610731565b005b61010260048036038101906100fd9190610f0d565b610804565b005b6001818154811061011457600080fd5b906000526020600020906005020160009150905080600001805461013790610f85565b80601f016020809104026020016040519081016040528092919081815260200182805461016390610f85565b80156101b05780601f10610185576101008083540402835291602001916101b0565b820191906000526020600020905b81548152906001019060200180831161019357829003601f168201915b5050505050908060010180546101c590610f85565b80601f01602080910402602001604051908101604052809291908181526020018280546101f190610f85565b801561023e5780601f106102135761010080835404028352916020019161023e565b820191906000526020600020905b81548152906001019060200180831161022157829003601f168201915b50505050509080600201805461025390610f85565b80601f016020809104026020016040519081016040528092919081815260200182805461027f90610f85565b80156102cc5780601f106102a1576101008083540402835291602001916102cc565b820191906000526020600020905b8154815290600101906020018083116102af57829003601f168201915b5050505050908060030180546102e190610f85565b80601f016020809104026020016040519081016040528092919081815260200182805461030d90610f85565b801561035a5780601f1061032f5761010080835404028352916020019161035a565b820191906000526020600020905b81548152906001019060200180831161033d57829003601f168201915b50505050509080600401805461036f90610f85565b80601f016020809104026020016040519081016040528092919081815260200182805461039b90610f85565b80156103e85780601f106103bd576101008083540402835291602001916103e8565b820191906000526020600020905b8154815290600101906020018083116103cb57829003601f168201915b5050505050905085565b60606001805480602002602001604051908101604052809291908181526020016000905b8282101561072257838290600052602060002090600502016040518060a001604052908160008201805461044990610f85565b80601f016020809104026020016040519081016040528092919081815260200182805461047590610f85565b80156104c25780601f10610497576101008083540402835291602001916104c2565b820191906000526020600020905b8154815290600101906020018083116104a557829003601f168201915b505050505081526020016001820180546104db90610f85565b80601f016020809104026020016040519081016040528092919081815260200182805461050790610f85565b80156105545780601f1061052957610100808354040283529160200191610554565b820191906000526020600020905b81548152906001019060200180831161053757829003601f168201915b5050505050815260200160028201805461056d90610f85565b80601f016020809104026020016040519081016040528092919081815260200182805461059990610f85565b80156105e65780601f106105bb576101008083540402835291602001916105e6565b820191906000526020600020905b8154815290600101906020018083116105c957829003601f168201915b505050505081526020016003820180546105ff90610f85565b80601f016020809104026020016040519081016040528092919081815260200182805461062b90610f85565b80156106785780601f1061064d57610100808354040283529160200191610678565b820191906000526020600020905b81548152906001019060200180831161065b57829003601f168201915b5050505050815260200160048201805461069190610f85565b80601f01602080910402602001604051908101604052809291908181526020018280546106bd90610f85565b801561070a5780601f106106df5761010080835404028352916020019161070a565b820191906000526020600020905b8154815290600101906020018083116106ed57829003601f168201915b50505050508152505081526020019060010190610416565b50505050905090565b60005481565b806001838154811061074657610745610fb6565b5b906000526020600020906005020160008201518160000190816107699190611191565b50602082015181600101908161077f9190611191565b5060408201518160020190816107959190611191565b5060608201518160030190816107ab9190611191565b5060808201518160040190816107c19190611191565b509050507fd4183ff38929c512f0a3793597cc983bd500038eef270d577268575ba166b6a28282336040516107f893929190611336565b60405180910390a15050565b600181908060018154018082558091505060019003906000526020600020906005020160009091909190915060008201518160000190816108459190611191565b50602082015181600101908161085b9190611191565b5060408201518160020190816108719190611191565b5060608201518160030190816108879190611191565b50608082015181600401908161089d9190611191565b5050506000808154809291906108b2906113a3565b91905055507ff71cb0b1b6455ebfc84970548e56ca3db684b23e5fda1b123def764f2e5ca01c81336040516108e89291906113eb565b60405180910390a150565b6000604051905090565b600080fd5b600080fd5b6000819050919050565b61091a81610907565b811461092557600080fd5b50565b60008135905061093781610911565b92915050565b600060208284031215610953576109526108fd565b5b600061096184828501610928565b91505092915050565b600081519050919050565b600082825260208201905092915050565b60005b838110156109a4578082015181840152602081019050610989565b60008484015250505050565b6000601f19601f8301169050919050565b60006109cc8261096a565b6109d68185610975565b93506109e6818560208601610986565b6109ef816109b0565b840191505092915050565b600060a0820190508181036000830152610a1481886109c1565b90508181036020830152610a2881876109c1565b90508181036040830152610a3c81866109c1565b90508181036060830152610a5081856109c1565b90508181036080830152610a6481846109c1565b90509695505050505050565b600081519050919050565b600082825260208201905092915050565b6000819050602082019050919050565b600082825260208201905092915050565b6000610ab88261096a565b610ac28185610a9c565b9350610ad2818560208601610986565b610adb816109b0565b840191505092915050565b600060a0830160008301518482036000860152610b038282610aad565b91505060208301518482036020860152610b1d8282610aad565b91505060408301518482036040860152610b378282610aad565b91505060608301518482036060860152610b518282610aad565b91505060808301518482036080860152610b6b8282610aad565b9150508091505092915050565b6000610b848383610ae6565b905092915050565b6000602082019050919050565b6000610ba482610a70565b610bae8185610a7b565b935083602082028501610bc085610a8c565b8060005b85811015610bfc5784840389528151610bdd8582610b78565b9450610be883610b8c565b925060208a01995050600181019050610bc4565b50829750879550505050505092915050565b60006020820190508181036000830152610c288184610b99565b905092915050565b610c3981610907565b82525050565b6000602082019050610c546000830184610c30565b92915050565b600080fd5b7f4e487b7100000000000000000000000000000000000000000000000000000000600052604160045260246000fd5b610c97826109b0565b810181811067ffffffffffffffff82111715610cb657610cb5610c5f565b5b80604052505050565b6000610cc96108f3565b9050610cd58282610c8e565b919050565b600080fd5b600080fd5b600080fd5b600067ffffffffffffffff821115610d0457610d03610c5f565b5b610d0d826109b0565b9050602081019050919050565b82818337600083830152505050565b6000610d3c610d3784610ce9565b610cbf565b905082815260208101848484011115610d5857610d57610ce4565b5b610d63848285610d1a565b509392505050565b600082601f830112610d8057610d7f610cdf565b5b8135610d90848260208601610d29565b91505092915050565b600060a08284031215610daf57610dae610c5a565b5b610db960a0610cbf565b9050600082013567ffffffffffffffff811115610dd957610dd8610cda565b5b610de584828501610d6b565b600083015250602082013567ffffffffffffffff811115610e0957610e08610cda565b5b610e1584828501610d6b565b602083015250604082013567ffffffffffffffff811115610e3957610e38610cda565b5b610e4584828501610d6b565b604083015250606082013567ffffffffffffffff811115610e6957610e68610cda565b5b610e7584828501610d6b565b606083015250608082013567ffffffffffffffff811115610e9957610e98610cda565b5b610ea584828501610d6b565b60808301525092915050565b60008060408385031215610ec857610ec76108fd565b5b6000610ed685828601610928565b925050602083013567ffffffffffffffff811115610ef757610ef6610902565b5b610f0385828601610d99565b9150509250929050565b600060208284031215610f2357610f226108fd565b5b600082013567ffffffffffffffff811115610f4157610f40610902565b5b610f4d84828501610d99565b91505092915050565b7f4e487b7100000000000000000000000000000000000000000000000000000000600052602260045260246000fd5b60006002820490506001821680610f9d57607f821691505b602082108103610fb057610faf610f56565b5b50919050565b7f4e487b7100000000000000000000000000000000000000000000000000000000600052603260045260246000fd5b60008190508160005260206000209050919050565b60006020601f8301049050919050565b600082821b905092915050565b6000600883026110477fffffffffffffffffffffffffffffffffffffffffffffffffffffffffffffffff8261100a565b611051868361100a565b95508019841693508086168417925050509392505050565b6000819050919050565b600061108e61108961108484610907565b611069565b610907565b9050919050565b6000819050919050565b6110a883611073565b6110bc6110b482611095565b848454611017565b825550505050565b600090565b6110d16110c4565b6110dc81848461109f565b505050565b5b81811015611100576110f56000826110c9565b6001810190506110e2565b5050565b601f8211156111455761111681610fe5565b61111f84610ffa565b8101602085101561112e578190505b61114261113a85610ffa565b8301826110e1565b50505b505050565b600082821c905092915050565b60006111686000198460080261114a565b1980831691505092915050565b60006111818383611157565b9150826002028217905092915050565b61119a8261096a565b67ffffffffffffffff8111156111b3576111b2610c5f565b5b6111bd8254610f85565b6111c8828285611104565b600060209050601f8311600181146111fb57600084156111e9578287015190505b6111f38582611175565b86555061125b565b601f19841661120986610fe5565b60005b828110156112315784890151825560018201915060208501945060208101905061120c565b8683101561124e578489015161124a601f891682611157565b8355505b6001600288020188555050505b505050505050565b600060a08301600083015184820360008601526112808282610aad565b9150506020830151848203602086015261129a8282610aad565b915050604083015184820360408601526112b48282610aad565b915050606083015184820360608601526112ce8282610aad565b915050608083015184820360808601526112e88282610aad565b9150508091505092915050565b600073ffffffffffffffffffffffffffffffffffffffff82169050919050565b6000611320826112f5565b9050919050565b61133081611315565b82525050565b600060608201905061134b6000830186610c30565b818103602083015261135d8185611263565b905061136c6040830184611327565b949350505050565b7f4e487b7100000000000000000000000000000000000000000000000000000000600052601160045260246000fd5b60006113ae82610907565b91507fffffffffffffffffffffffffffffffffffffffffffffffffffffffffffffffff82036113e0576113df611374565b5b600182019050919050565b600060408201905081810360008301526114058185611263565b90506114146020830184611327565b939250505056fea2646970667358221220cb05a4f35bdd796f2acdc2af055764119ddba4b52f8dbccb57dddea514c178db64736f6c63430008140033",
  "linkReferences": {},
  "deployedLinkReferences": {}
}